:020000040800F2
:100000000000032041E70008014B0008034B0008F3
:10001000054B0008074B0008094B000800000000D2
:10002000000000000000000000000000A18C00089B
:100030000B4B000800000000418D0008A58D000852
:1000400091E7000891E7000891E7000891E70008B0
:1000500091E7000891E7000891E7000891E70008A0
:1000600091E7000891E7000891E700080D4B0008B0
:1000700091E7000891E700081D4B000891E7000890
:1000800091E70008214B000891E7000891E700087C
:10009000314B000891E7000891E7000891E700085C
:1000A00091E7000891E7000891E7000891E7000850
:1000B00091E7000891E7000891E7000891E7000840
:1000C00091E7000891E7000891E7000891E7000830
:1000D00091E700085D4B000891E7000891E70008F0
:1000E00091E7000891E7000891E7000891E7000810
:1000F00091E7000891E7000891E7000891E7000800
:1001000091E7000891E7000891E7000891E70008EF
:1001100091E7000891E700089D4B000891E700086F
:1001200091E70008AD4B0008AF4B000891E70008CD
:1001300091E7000891E7000891E7000891E70008BF
:10014000B14B000891E7000891E7000891E700082B
:1001500091E7000891E7000891E70008DD4B0008EF
:1001600091E7000891E7000891E7000891E700088F
:1001700091E7000891E7000891E7000800000000FF
:1001800091E7000891E700081D4C000891E700087E
:1001900091E7000891E7000891E7000891E700085F
:0C01A000000000000000000091E70008D3
:1001B00008B52DED028BB0EE408A00F0DDF9B4EE0B
:1001C000488AF1EE10FAF0EE408A0AD6B0EE480AFC
:1001D00000F0B2F8F7EE007AB4EEE70AF1EE10FAAA
:1001E00004DCB0EE680ABDEC028B08BD01F092FFA2
:1001F000BDEC028B034621221A600248BDE808408C
:1002000000F0E6B858EF000800F0B4BA08B52DEDDC
:10021000048BB0EE608AB0EE409A00F051FBB4EE71
:10022000488AF1EE10FAF0EE408A0BD6B5EE409A0D
:10023000F1EE10FA17D1B5EE408AF1EE10FA06D1C0
:10024000F7EE008AB0EE680ABDEC048B08BDB0EE94
:10025000480A00F0B3F80028F4D0B5EEC08AF1EEF9
:1002600010FAEFD525E000F0A9F888B1F5EE408A44
:10027000F1EE10FAE6D1B0EE490A00F09FF800283E
:10028000E0D0B0EE480A00F099F80028DAD010E08B
:10029000B0EE490A00F092F80028E7D0B0EE480A24
:1002A00000F08CF80028E1D0F4EE688AF1EE10FA44
:1002B00004D601F02FFF22230360C3E701F02AFFD9
:1002C00021230360BEE700BF10EE103A184923F067
:1002D00000428A421BD9B2F1FF4F02D330EE400AEE
:1002E000704700B583B0684600F030FE00F00300B0
:1002F0000128DDED010A9DED000A0CD0022812D084
:1003000070B1012000F0F0F803B05DF804FBDFED00
:10031000090A00F067B800F0E7F8B1EE400AF3E729
:1003200000F060F8F0E700F05DF8B1EE400AEBE7AE
:10033000D80F493F0000000010EE103A23F00043B0
:1003400000EE103A704700BF10EE103A194923F042
:1003500000428A421CD9B2F1FF4F02D330EE400A6C
:10036000704700B583B0684600F0F0FD00F0030070
:100370000128DDED010A9DED000A0ED0022813D000
:1003800070B100F02FF8B1EE400A03B05DF804FB45
:10039000DFED090A002000F0A7B800F023F8F4E729
:1003A000012000F0A1F8F0E7012000F09DF8B1EE87
:1003B000400AEAE7D80F493F0000000010EE103A6B
:1003C00023F00040B0F1FF4FACBF00200120704788
:1003D0009FED010A704700BF0000C07FB1EEC00A68
:1003E000704700BF10EE103A23F00043B3F1485FAE
:1003F0002CD2FDEEC07A17EE903A002B60D060EE62
:10040000007A9FED317A9FED315ADFED315A9FED41
:10041000316ADFED316AA7EE875A9FED307AE5EE5B
:10042000275AA7EEA56AA7EE867AE7EE876A67EEF7
:10043000A66A60EEC00AB6EE007AE7EEA60AB7EE4C
:10044000000AD7EE870A30EE600A704760EE007A45
:100450009FED1D7A9FED1D5ADFED1D5A9FED1D6A20
:10046000DFED1D6A1E4AA7EE875A93429FED1B7A65
:10047000E5EE275AA5EEA76AA6EE277AE7EE276AE9
:1004800066EEA76AD5D9174A934214D803F17F4381
:1004900007EE103AB7EE006A36EE476A60EEC00A21
:1004A000F6EE005A97EEA57AE7EEA60A37EE607AE6
:1004B00036EE470A7047B6EE076AB5EE027AEDE708
:1004C000B7EE000A704700BF4ED747ADF6740F3144
:1004D0007CF293B4010DD037ABAA2A3D610BB6BABA
:1004E0009999993E0000483F10EE103A23F00043DE
:1004F000B3F1485F04D2FDEEC07A17EE903A5BB3D9
:1005000060EE007A9FED157ADFED155A9FED156AC2
:10051000DFED156AE7EE875A9FED147AA5EEA76A1C
:1005200020EE275AE6EE276AA6EEA77A30B9DFED6D
:10053000106AE7EE876AA6EE850A704727EE457ACD
:10054000F6EE006AA0EEA67ADFED0A6AD7EE270A79
:10055000E5EE260A30EE600A704700BFD3C92E2FA1
:10056000342FD7B21BEF3836010D50B98988083CBB
:10057000ABAA2ABEABAA2A3E38B510EE105A25F017
:100580000044B4F17E5F2DED048BF0EE407A00F074
:10059000828079D8B4F17C5F0ED2B4F1485F80F0EC
:1005A00094809FED647A30EE077AF7EE006AB4EE3D
:1005B000E67AF1EE10FA64DCB0EE670AFFF7BCFEF3
:1005C000F7EE007A37EEC08AB6EE007A28EE078A98
:1005D000DFED596A9FED597A9FED596A9FED595A9F
:1005E000DFED595ADFED598AE8EE076A9FED587A38
:1005F000A8EE067A9FED576AA6EE885AA7EE086A1B
:100600009FED557ADFED556AE5EE085AA6EE087AB9
:10061000E5EE886AE7EE087AE6EE888AB0EE480AE8
:10062000B0EE679AFFF7DAFE4D4B9C4268EE888A7F
:100630003CD810EE103A23F47F6323F00F0306EE4C
:10064000903AA6EEE68A70EE267A88EE895AC8EECF
:10065000274A9FED447ADFED447AB0EE006AA4EEBB
:10066000C67A30EE000AF0EE675A90EE057AE6EEB2
:10067000C65A37EE657A37EEC70A002D01DCB1EEB7
:10068000400ABDEC048B38BDBDEC048B70EE407AA3
:1006900087EEA70A38BDBDEC048B9FED320A9FEDB3
:1006A000337A27EE800AA7EE870A38BD88EE896A7A
:1006B0009FED2F7ADFED2D7AA0EE060AF0EE006AAC
:1006C000A0EE267A37EEC70AD7E720EE007ADFEDF4
:1006D0001B6A9FED196ADFED1B5A9FED195ADFED7A
:1006E0001A4AA7EE266ABDEC048BE6EE075ADFED48
:1006F000186A9FED186AE7EE056AE5EE874AA6EEEE
:10070000876A9FED165ADFED145ADFED106AA4EEEA
:10071000875AE6EE075AE5EE076AB7EE006AA5EEDD
:10072000876A26EE877AC7EE066AE0EE267AB0EE92
:10073000670A38BDCAF24971047F4F3A08EF113891
:100740002EC69D3D461124BDA80A4E3EABAA2A3EA8
:10075000613330BF2D57014039D119C090B0A6BECA
:100760009999793F2EBD3BB3DB0F493FDB0FC93F62
:100770002EBD3B3310B582B0CDED010A019B23F0B5
:100780000042B2F1FF4FF0EE407A30D810EE100A7E
:1007900020F00041B1F1FF4F29D8B3F17E5F42D084
:1007A0009C1704F0020444EAD07431B37AB3B2F176
:1007B000FF4F40D0B1F1FF4F29D0891AB1F1F45F5A
:1007C0004FEAE15234DA002B42DA3C3240DA9FED54
:1007D000340A012C4ED0022C43D064B19FED317A03
:1007E000DFED317A30EE070A30EE670A03E09DED67
:1007F000017A37EE270A02B010BD022C10D09FED0F
:100800002B7A032C08BFB0EE470A02B010BD9FED53
:10081000280ADFED287A0028B8BFB0EE670AEAE7B9
:100820009FED210AE7E702B0BDE8104000F0BEBC32
:100830009FED1F0ACDE7B1F1FF4F04F1FF3420D047
:10084000022C26D81C4B03EB840393ED030AD2E75A
:100850009DED017A87EE870AFFF76EFD00F0A6FC9A
:10086000B7E79FED107ADFED107A30EE070A37EE2A
:10087000C00AC0E710EE103A03F1004300EE103A50
:10088000B9E7022C08D80C4B03EB840393ED000A64
:10089000B1E79FED030AAEE79FED080AABE700BFA3
:1008A000000000002EBDBB33DB0F4940DB0F49C009
:1008B000DB0FC93FDB0FC9BF4CEB0008DB0F493F23
:1008C0002DE9F0432DED028B83B0CDED010A8DEDC6
:1008D000000ADDE9004535F0004610D184F48004BB
:1008E000640014F5000F1BD9DDED007A9DED017A4F
:1008F00037EE870A03B0BDEC028BBDE8F08324F02D
:100900000047B7F1FF4F02D8B6F1FF4F0FD9B4F14E
:100910007E5FE9D185F480056D0015F5000FE3D801
:10092000B7EE000A03B0BDEC028BBDE8F083002CEB
:10093000B846C0F2F180B6F1FF4F00F00281B6F187
:100940007E5F00F04481B5F1804F00F051814FF09F
:100950000009B5F17C5F40F01C81002C9DED000A80
:1009600080F24B81FFF7E8FCB7F1FF4F00F02481E4
:10097000002F00F02181B7F17E5F00F01481E20FBB
:10098000013A59EA020300F04481B6F19A4F40F26D
:100990006781A34B9F4240F26882A24B9F4200F2C4
:1009A0007182F7EE007A30EE670A9FED9F6ADFED05
:1009B0009F5AF5EE007AA0EE676AF6EE006AE6EE60
:1009C000406A20EE007ADFED9A7A9FED9A6A27EE70
:1009D000267A67EEC77AE0EE257AF0EE676AE0EEF7
:1009E000066A16EE903A23F47F6323F00F0306EEB7
:1009F000903AB0EE667AA0EE467A77EEC77A25F4A2
:100A00007F6525F00F059DED017A06EE105A67EE21
:100A1000877A37EE466A07EE105AE6EE267A09F133
:100A2000FF3959EA020926EE877ABFEE008A77EE8F
:100A3000876AB7EE006A16EE902A18BFB0EE468AB3
:100A4000002A134622F0004140F3D681B1F1864FCF
:100A500000F2458200F02982B1F17C5F00F247820A
:100A60000022104623F47F6323F00F0306EE103AB2
:100A7000DFED716A9FED713A9FED712ADFED713AFA
:100A80009FED714ADFED714A9FED715A36EE477A5C
:100A9000F0EE002A77EEC77A26EE267ADFED6D6A51
:100AA000A7EEA67AB7EE000AF0EE476AE6EE036A12
:100AB00066EEA65AF0EE667AE5EE823AE6EE437A04
:100AC000B0EE446AA3EEA56A77EE677AB0EE647A78
:100AD000A6EE257AB0EE456AA7EE256AB0EE667AF4
:100AE000A6EE657AE6EEA77A66EE875A37EE626A78
:100AF00085EE867A77EE677A77EEE67A30EE670AE9
:100B000010EE103A1344B3F5000FC0F2B88100EEB6
:100B1000103A20EE080AEDE6B6F1974F21D2B6F171
:100B20007E5F24D2B5F1804F62D0B5F17C5F2ED1CB
:100B3000FFF702FCB7F1FF4F3FF4DCAE4FF00009C6
:100B400016E7B7F17E5F3FF4EBAE45D99FED420A61
:100B5000DDED017A002DB8BFF0EE407AB0EE670A05
:100B6000C8E6B6F1FF4FECD04FF00209F1E6F315FD
:100B7000C3F1960346FA03F202FA03F3B34200F01C
:100B80002781B6F17E5F22D0B5F1804F30D04FF093
:100B900000099DED000AFFF7CFFBB7F1FF4F02D030
:100BA000002F7FF4E8AE002DBCBFF7EE007A87EE91
:100BB000800A002CBFF69EAEA7F17E5757EA0907C0
:100BC00040F0138170EE407A87EEA70A92E6002D7E
:100BD00007DB9DED000A8DE6002D15DB9FED1E0A5B
:100BE00088E69DED007AF7EE007A87EE870A81E6C7
:100BF000DDED007A27EEA70A7CE603B0BDEC028BA0
:100C0000BDE8F043FFF7EABBDDED017AB1EE670A1C
:100C100070E6DDED007A77EEE77A87EEA70A69E6FF
:100C2000F3FF7F3F0700803FABAAAA3E70A5EC36DA
:100C30003BAAB83F00AAB83F8CBEBF350072313F17
:100C40004CBB31330EEADDB555B38A38610B36BB88
:100C5000ABAA2A3E1872313F000000000000804B12
:100C600014F0FF4F40F0FF805FED047A60EE277ACA
:100C70006FF0170317EE908AA2484FEAE851C8F3C5
:100C800016087F398045194448F07E5340F3E380CD
:100C90009D48804540F300819FED9C4A0131B0EEB4
:100CA000443AA3F50003F7EE005A002006EE903A0E
:100CB00076EEA57AB7EE007A87EE270A5B1043F04E
:100CC000005303F58023034436EEE56A07EE901ADD
:100CD00066EE003AB8EEE77A07EE903A13EE901A15
:100CE0008B4BDFED8C0A9FED8C8A9FED8C1ADFED2C
:100CF0008C2ADFED8C1A9FED8C2A77EEE55A19408D
:100D000076EEE55A06EE901A23EEA35AA6EEE76AAF
:100D1000F0EE607AE5EE087AA6EEE56AA7EE851AAF
:100D200026EE006AE1EE052A73EEA67AE2EE851A57
:100D300025EE058AA1EE852A67EE867AF0EE084A4E
:100D4000F0EE645AE6EEA65AE8EE027ADFED770A94
:100D50009FED771ADFED772A75EEA75A15EE901AF8
:100D6000194005EE901A75EEE44AE6EEE64A77EE93
:100D7000E47A67EEA37AE6EE257AB0EE676AA6EE2D
:100D8000A56A16EE101A194006EE101AB0EE465A71
:100D9000A6EEE55A77EEC57A67EEA07AE6EE017A1E
:100DA00077EE837AF0EE676AE6EE226A76EE846A80
:100DB00076EE876A16EE901A194006EE901A36EE15
:100DC000C77A37EE447AA6EE627A77EEC77A16E6ED
:100DD000B6F17E5F3FF4FBAEB5F1804F3FF408AF54
:100DE00002F00102C2F10209D3E6B9F1010F7FF46A
:100DF00081ADB1EE400A7DE54F48814279D87FF45C
:100E00002BAE76EEC76AF4EEE76AF1EE10FA70DA0E
:100E100086214FF400037E3943FA01F11144C1F3F6
:100E2000C7547F3C03F17F43C1F31600234140F4D4
:100E30000000C4F117042041002A03EA0103B8BFEF
:100E4000404206EE903A37EE667AC20577EE876A40
:100E500016EE903A06E69FED2D4AF7EE005AB0EEF8
:100E6000443A002022E7002306E7002D0CDB002097
:100E700003B0BDEC028BBDE8F04300F0F5BA00F022
:100E800065FA46E6002DF2DD002003B0BDEC028BD2
:100E9000BDE8F04300F0EEBA9FED284A9FED283AF6
:100EA000F7EE085A4FF4001000E79FED266A76EE41
:100EB000C76A37EE866AB4EEE66AF1EE10FA0EDC27
:100EC00002F50042204BD1157F39C2F316000B41C9
:100ED00040F40000C1F1170113400841B1E7B5EE3D
:100EE000C08AF1EE10FA4CBF01200020CDE7C915F1
:100EF0008FE7B5EEC08AF1EE10FA4CBF012000205A
:100F0000B6E700BF71C41C00D6B35D00000000004E
:100F100000F0FFFF55326C3E42F1533E05A38B3E7D
:100F2000ABAAAA3EB76DDB3E9A99193F4F38763F80
:100F3000A0C39D360038763F0000164300C0153F21
:100F4000DCCFD1353CAA3833000080FF70B510EEFD
:100F5000103A884A23F00044944286B0054671D97D
:100F6000854A94421E4624D823F00042002BDFED30
:100F7000837A834922F00F02B0EE407A40F3E0809A
:100F80008A4270EE677A09BF9FED7E7ADFED7E6A56
:100F9000DFED7E6A77EEC77A37EEE67A77EEC77ACC
:100FA00080ED007A77EEE67AC0ED017A012006B096
:100FB00070BD774A944252D9B4F1FF4F48D2E2153E
:100FC000863AA4EBC25307EE903ABDEEE77ADFED26
:100FD000716AB8EEC77A77EEC77A8DED037A67EE5D
:100FE000A67ABDEEE77AB8EEC77A77EEC77A8DEDCE
:100FF000047A67EEA67AF5EE407AF1EE10FACDEDBE
:10100000057A40F09880B5EE407AF1EE10FA0CBF08
:1010100001230223604901910221009103A829467E
:1010200000F04CFA002EC2DA95ED007AD5ED017A87
:10103000B1EE477AF1EE677A85ED007AC5ED017A77
:101040004042B4E7002285ED000A42600020AEE78E
:1010500070EE407AC0ED017AC0ED007AF6E7FFF756
:101060006BF99FED4E7A9FED456AF6EE007AE0EE61
:10107000077A9FED457AFDEEE77A17EE900AF8EED3
:10108000E76A1F28A6EEC60A66EE877AB1EE666AA0
:1010900020DC434A411E26F0004352F8212023F071
:1010A000FF03934216D030EE677A30EE470A002EE7
:1010B00030EE670A85ED007A85ED010ABFF677AF5D
:1010C000B1EE477AB1EE400A85ED007A85ED010A6E
:1010D00040426CE730EE677AE21517EE103AC3F340
:1010E000C753C3EBD453082BDFDD9FED267A9FED6A
:1010F000275AF0EE405AE6EE075A70EE657AE6EEB1
:10110000077AD6EE857A35EEE77A17EE103AC3F312
:10111000C753D21A192A10DD9FED227A9FED225A69
:10112000B0EE650AA6EE070A75EEC07AE6EE077A1B
:10113000D6EE857AB7E703236CE7B0EE650AB4E72D
:101140008A4270EE277A09BF9FED0E7ADFED0E6AB4
:10115000DFED0E6A77EE877A37EEA67A77EEC77AFA
:1011600080ED007A77EEA67AC0ED017A4FF0FF307D
:101170001DE700BFD80F493FE3CB1640800FC93FA2
:10118000D00FC93F004435374344353708A3852E77
:10119000800F494300008043E4EB000884F9223FBC
:1011A00064EB000800A3852E32318D2438B510EE93
:1011B000105A25F00044B4F1A14FF0EE407A0DD35F
:1011C000B4F1FF4F58D8DFED4F7A9FED4F7A002DE5
:1011D000CCBFB0EE470AB0EE670A38BD4B4B9C421D
:1011E00059D8B4F1445F4AD34FF0FF3227EEA76AD3
:1011F0009FED475A9FED477ADFED475ADFED474AAB
:1012000066EE066A531CA6EE857AE6EEA54A9FEDC9
:10121000445ADFED445AA7EE265AE4EEA65A9FED53
:10122000427ADFED424AA5EE267AE5EEA64A9FED28
:10123000405ADFED405AA7EE265A9FED3F7AA4EEC2
:10124000A67AE5EE265A27EE267AA5EE867A27EECE
:10125000877A35D0394B03EB820393ED046AD3EDE3
:10126000006A37EE467A002D37EE677A36EEC70A07
:10127000B3DAB1EE400A38BD30EE000A38BD9FED5A
:10128000307A30EE077AF7EE006AB4EEE67AF1EEE5
:1012900010FAA9DD38BDFFF74FF82A4B9C4212D84F
:1012A000A3F5D0039C4223D8F0EE007ABFEE007A7B
:1012B000A0EE277A002230EE270AC7EE007A95E7E3
:1012C00037EEC70A38BD204B9C420BD8F7EE087AA0
:1012D000B7EE007AA0EE277A022230EE670AC0EE5F
:1012E000077A83E7BFEE007AC7EE007A03227DE734
:1012F000F7EE007A30EE677A30EE270A0122C7EE69
:10130000007A73E7DB0FC9BFDB0FC93FFFFFDF3E8A
:10131000D769853C59DA4B3D21A215BD6BF16EBDF5
:10132000356B883D95879DBD6E2EBA3D388EE3BDE9
:101330002549123EABAAAA3ECDCC4CBEFCEE00081D
:10134000CAF24971FFFF973FFFFF1B4010EE103AB2
:1013500033F000411A4627D0B1F1FF4F21D213F0EC
:10136000FF4F22D1DFED2B7A2B4A60EE277A904295
:1013700017EE903A33DB4CF2503CC3F3C751604553
:101380001A46A1F1190116DDDFED247ADFED246A9A
:10139000002BB0EE677AB8BFF0EE667A27EE870AC8
:1013A000704730EE000A704770474CF2503C604581
:1013B0004FEAD151E8DC0144FE29E5DC002915DCC7
:1013C00011F1160F19DB193122F0FF4242EAC15226
:1013D00007EE902A9FED130A27EE800A7047DFED93
:1013E000127A07EE103A27EE270A704722F0FF42E2
:1013F00042EAC15300EE103A7047DFED0B7ADFEDA1
:101400000B6A002BB0EE677AB8BFF0EE667A27EE73
:10141000870A70470000004CB03CFFFFCAF24971D8
:10142000CAF249F1000000336042A20D6042A28D71
:1014300010B52DED028BB0EE408A044600F06AFE36
:10144000B0EE480ABDEC028B046010BD28B1F1EE8D
:10145000407A27EE800A2220EAE7F0EE407A27EE73
:10146000800A2220E4E700BF9FED010AEEE700BFFB
:10147000000000109FED010AE8E700BF00000070C7
:1014800000289FED060AF7EE007ABFEE007A18BF3B
:10149000F0EE477A87EE800A2220C9E700000000BC
:1014A000F0EE407A30EE407AF4EE677AF1EE10FA20
:1014B00087EE070A01D62120BAE770472DE9F04FE1
:1014C0002DED048BDBB00C46814611466898964A98
:1014D00004931E4623460C1D52F8205006F1FF3798
:1014E000C0F2AF82CA1E48BF0A1DD2100392013259
:1014F000D2000692069A0398EE19A1EB0202A0EB25
:10150000070019D401369FED897ADDF8A4C106449D
:101510001EAC9E460028A4BF5CF8203007EE903A2F
:1015200000F10100ACBFF8EEE77AF0EE477AB04286
:10153000E4EC017AEED17346002DC0F2D682049815
:101540001EAC04EB80064FEA800805EB000E0DF59B
:101550008C7C3C4609EB8000002FDFED747A09DBC0
:10156000B346CA46FAEC016A3BED017A8245E6EEE3
:10157000877AF7D101347445ECEC017A06F1040660
:10158000EAD10DF1280A0AEB8500CDE907310438CC
:101590009FED689ADFED668A059009EB0804AB467B
:1015A0000AEB850846AE019510465AAB03EB8B0358
:1015B000BBF1000F13ED140A16DD06EB8B03524648
:1015C00060EE097AB0EE407AFDEEE77A73ED016ADB
:1015D000F8EEE77AB342A7EEE87A37EEA60ABDEE58
:1015E000C77AA2EC017AEBD10290FFF7AFFEF4EEDE
:1015F000007AB0EE408A20EE270A00F09BFAF2EE65
:10160000007AA0EE678A02980028FDEEC89AF8EEEC
:10161000E97A38EE678A6EDD0BF1FF3CC0F1080312
:101620005AF82C2042FA03F505FA03F3D21AC0F156
:10163000070119EE903A42FA01F12B4400294AF8C9
:101640002C2009EE903A00F36681B5EE408AF1EE67
:1016500010FA40F0BA80019B9B450BDD0AEB8B032F
:10166000002253F8045D434542EA0502F9D1002AFD
:1016700040F06F81019B013B5AF82330002B40F072
:101680005F81059B012153F8042D0131002AFAD016
:101690000BF1010359449C46039D049A05EB030E8C
:1016A0000EF1804E699D5A440EF1FF3E06EB830B0E
:1016B0001EAB05EB8E0E03EB8205DEED017AF8EE34
:1016C000E77A002F0EF1040EE5EC017ADFED177AD0
:1016D00009DB2A464B46F3EC016A32ED017AA3425C
:1016E000E6EE877AF7D10CF1010C8C45EBEC017A30
:1016F000E3DD8B4659E740F004810BF1FF335AF8E4
:101700002310C9110029A0DD19EE903ABBF1000F9A
:1017100003F1010309EE903A40F3EB810025D44632
:101720002A460291864619E01CEF000800000000DE
:10173000000080430000803B0135AB4541F8040CBC
:1017400040F303810B680CF1080C0135C3F1FF0372
:10175000AB454FF001024CF8043C0DDD614651F8F9
:10176000043B002A40F0CB80C3F58070002BE3D10E
:101770000135AB458C46F1DC0299704600280CDD42
:10178000012800F0D480022807D10BF1FF355AF868
:10179000253003F03F034AF8253002297FF455AF86
:1017A000B7EE000A30EE488A002A3FF44EAF0991A6
:1017B0000290FFF7CBFD38EE408A02980999B5EE0A
:1017C000408AF1EE10FA3FF446AF079B019D02916B
:1017D00001930899069B0390B0EE480A581AFFF748
:1017E000B5FD5FED2D6A019B039AB4EEE60AF1EEBA
:1017F00010FAF0EE407AC0F24E811FED327A20EE00
:10180000077A0BF10104BDEEC77A0832B8EEC77A49
:10181000E7EE667ABDEEC77AFDEEE77A17EE901A2C
:101820004AF82B1017EE101A4AF824101046B7EE9B
:10183000000A0193FFF78AFD002C019BB0EE407A6D
:10184000C0F24981601C46AE5FED466A81000AEB3A
:10185000800206EB800072ED017AF8EEE77A5245DD
:1018600067EE877A27EE267A60ED017AF3D10DF1E3
:10187000C8080A1F46A88718C646A44600269946E7
:10188000002DC0F2E380A94BDFEDA97A3846002293
:1018900001E0B24208DCF3EC016AB0EC017A0132FB
:1018A0009542E6EE877AF4DA0CF1FF3CBCF1FF3F9B
:1018B000EEEC017A06F10106A7F10407E0D1689A7F
:1018C000022A4B465DDC002A00F3C3800ED1DFED17
:1018D000987A414431ED017A884577EE877AF9D1DB
:1018E000029A0AB1F1EE677AC3ED007A19EE903AE6
:1018F00003F007005BB0BDEC048BBDE8F08F8C46B5
:1019000023E7F6EE007AB4EEE78AF1EE10FA80F201
:101910008680002199E60133BBF1000F09EE903A71
:10192000D8BF00223FF7FAAE01287FF42CAF0BF1AD
:10193000FF355AF8253003F07F034AF825302CE7AD
:101940000BF101039C461946A6E602997046012256
:1019500014E70BF1FF3402915AF82410019D079B04
:10196000A0F1080200297FF461AF0BF18041013939
:101970000AEB810151F8040D013C083A0028F9D026
:1019800054E7689A032AB1D1002C00F0BE8008EB1E
:10199000840595ED007A2A46A000294671ED017A6A
:1019A000F0EE476A37EE277A414577EEC77A81ED48
:1019B000007A77EEA67AC1ED017AEFD1012C00F022
:1019C000A48095ED007A08F1040172ED017AF0EE41
:1019D000476A37EE277A914277EEC77A82ED007A2E
:1019E00077EEA67AC2ED017AEFD1021DDFED507AD3
:1019F000424408F1080832ED017A904577EE877A83
:101A0000F9D1029ADDED326A9DED337A002A4AD18E
:101A1000C3ED006A83ED017AC3ED027A66E719EE41
:101A2000903ABBF1000F03F1010309EE903AC8BFF1
:101A300002213FF773AEF7EE007A37EEC88A022133
:101A400003E6082206920022039253E5DFED387A7E
:101A50002AE7DFED377A414431ED017A884577EEA8
:101A6000877AF9D1029A5ABB9DED327AC3ED007A9A
:101A700077EE677A64B133A90122B1EC017A0132C1
:101A8000944277EE877AF8DA029A0AB1F1EE677A31
:101A9000C3ED017A2AE7FDEEC07A5C4617EE901A94
:101AA0004AF82B10C2E6F1EE666AB1EE477AF1EE23
:101AB000677AC3ED006A83ED017AC3ED027A15E718
:101AC000DDED326AB1EE677A83ED007A76EEE77A81
:101AD000002CD0D1DAE7689A022A12DC002A17DC3F
:101AE0007FF404AFDFED127AFAE604984FEA80083B
:101AF00047E502297FF4A9ADF7EE007A37EEC88AF0
:101B0000A3E5689A032A7FF4F1AEDFED097A78E75E
:101B1000029A22B90022DDED327A1A60B8E74FF05E
:101B20000042DDED327A1A60B0E700BF28EF00080E
:101B30000000000010EE102AC2F3C7537F3B162BA3
:101B400022F0004129DC002B104618DB1A4919410C
:101B50000A4221D0DFED197A70EE277AF5EEC07ACD
:101B6000F1EE10FA18DD002A04DA4FF4000242FA0E
:101B700003F3184420EA010300EE103A7047DFED4A
:101B80000F7A70EE277AF5EEC07AF1EE10FA03DDE7
:101B9000002A08DB9FED0A0A7047B1F1FF4FFBD323
:101BA00030EE000A7047DFED077A0029BFEE000A29
:101BB00008BFB0EE670A7047FFFF7F00CAF24971A5
:101BC0000000000000000080024A0349034800F0C2
:101BD00069B900BF000000200D2D00081000002092
:101BE0000C4B4168994210B5044601D001F08EF8C3
:101BF000A168094B994202D0204601F087F8E168BC
:101C0000064B994204D02046BDE8104001F07EB852
:101C100010BD00BFE003002048040020B0040020F5
:101C200008B54B6EDA0702D48B899B0501D50020DD
:101C300008BD886D00F0A6FA002008BD08B54B6EFF
:101C4000DA0702D48B899B0501D5002008BD886D79
:101C500000F0A0FA002008BD2DE9F843314C324BCA
:101C6000DFF8D890DFF8D880304FC4F8383100253D
:101C700029460423082204F15C002D4EE360C4E9E8
:101C80000055C4E90455A5606566A56100F09CF99E
:101C900004F15800C4E90849C4E90A87266300F042
:101CA00069FA2946234B6367082204F1C400C4E99A
:101CB0001A55C4E91E552567C4F8CC50C4F88050A5
:101CC00000F082F904F1680304F1C000C4F8883020
:101CD000C4E92398C4E9257600F04CFA164BC4F801
:101CE000DC30294604F596700822C4E93455C4E96D
:101CF0003855C4F8D850C4F83451C4F8E85000F04E
:101D000063F904F1D003C4E93E87C4F8F49004F504
:101D10009470C4F80061C4F8F030BDE8F84300F0F6
:101D200029BA00BFE0030020C91B00089D1F00085E
:101D3000C11F00080900010012000200351F000841
:101D40005D1F0008F8B506462A4800F01BFA2A4B2A
:101D5000D3F83831002B43D0284FD7E90134013B69
:101D600004D524E05A1C04F1680420D0B4F90C50C6
:101D7000013B002DF6D1224BE36004F1580065666B
:101D800000F0F8F91B4800F005FAC4E90155C4E970
:101D900004552560A5610822294604F15C0000F085
:101DA00013F9C4E90D55C4E912552046F8BD3D6844
:101DB0000DB12F46D1E74FF4D671304600F008FB45
:101DC000044680B10423056043600C302946A060BE
:101DD00025464FF4D07200F0F7F83C602F46BCE780
:101DE000FFF73AFFB8E703483C6000F0D3F90C2353
:101DF0003360DAE73C050020E0030020000000200B
:101E00000100FFFF10B504460B4800F0BBF9236A40
:101E10002BB90A4B0A4AD3F83831226223B1BDE804
:101E20001040054800F0B6B9FFF716FFBDE81040B6
:101E3000014800F0AFB900BF3C050020E0030020DE
:101E4000E11B0008014800F09DB900BF3C050020DF
:101E5000014800F09FB900BF3C05002008B50548C7
:101E600000F090F9BDE80840034A0449002000F062
:101E700019B800BF3C05002000000020211C00080C
:101E800008B5054A0549002000F00CF8BDE80840F7
:101E9000034800F07FB900BF000000203D1C00088F
:101EA0003C0500202DE9F84380460F4616464FF0CA
:101EB0000009D6E90154013D11D4A389012B05F194
:101EC000FF3508D9B4F90E300133214603D040461E
:101ED000B84749EA00096B1C04F16804EDD1366883
:101EE000002EE6D14846BDE8F88300BF0EB400B529
:101EF00082B003AB816853F8042B019300F036FBEA
:101F000002B05DF804EB03B0704700BF0FB400B53A
:101F1000074983B004AB086853F8042B8168019328
:101F200000F024FB03B05DF804EB04B0704700BF81
:101F30000C00002010B50C46B1F90E1000F0BEF8F0
:101F4000002803DB636D0344636510BDA38923F49C
:101F50008053A38110BD00BF002070472DE9F041E0
:101F60000C46B1F90C101F46CB05054616460BD49E
:101F700021F48051A1813B46B4F90E103246284627
:101F8000BDE8F04100F0B0B8B4F90E100223002211
:101F900000F07EF8B4F90C10EAE700BF10B50C466B
:101FA000B1F90E1000F074F8B4F90C30421C0EBFF9
:101FB00023F4805343F480536065A38110BD00BFB8
:101FC000B1F90E1000F052B8830730B547D0541E57
:101FD000002A3ED0CAB2034601E0013C39D303F8DF
:101FE000012B9D07F9D1032C2CD9CDB205EB05258A
:101FF0000F2C05EB054535D9A4F1100222F00F0C8A
:1020000003F1100EE6444FEA121C1A4615605560A3
:102010009560D56010327245F8D10CF1010214F0D0
:102020000C0F03EB021204F00F0C13D0ACF10403FD
:1020300023F003030433134442F8045B9A42FBD1B8
:102040000CF003042CB1C9B21C4403F8011B9C42E0
:10205000FBD130BD64461346002CF4D1F9E70346AA
:102060001446C0E71A46A446E0E700BF38B5074D5E
:102070000022044608462A6002F064FE431C00D099
:1020800038BD2B68002BFBD0236038BD1C05002019
:1020900038B50C46084D8446114620461A460023A2
:1020A0002B60644602F058FE431C00D038BD2B68FC
:1020B000002BFBD0236038BD1C05002038B50C4632
:1020C000084D8446114620461A4600232B6064467C
:1020D00002F044FE431C00D038BD2B68002BFBD01F
:1020E000236038BD1C05002038B50C46084D8446D9
:1020F000114620461A4600232B60644602F030FE4B
:10210000431C00D038BD2B68002BFBD0236038BDAA
:102110001C050020014B1868704700BF0C00002010
:1021200070B50F4B0F4DAB42A3EB050607D0B610B1
:10213000002455F8043B01349847A642F9D80CF026
:1021400079FC094D094B5E1BAB424FEAA60606D04F
:10215000002455F8043B01349847A642F9D870BDD5
:1021600074F3000874F3000874F3000878F30008AF
:10217000704700BF704700BF704700BF704700BF87
:10218000704700BF704700BF0120704701207047B3
:10219000704700BF704700BF844641EA000313F058
:1021A00003036DD1403A41D351F8043B40F8043B5E
:1021B00051F8043B40F8043B51F8043B40F8043B21
:1021C00051F8043B40F8043B51F8043B40F8043B11
:1021D00051F8043B40F8043B51F8043B40F8043B01
:1021E00051F8043B40F8043B51F8043B40F8043BF1
:1021F00051F8043B40F8043B51F8043B40F8043BE1
:1022000051F8043B40F8043B51F8043B40F8043BD0
:1022100051F8043B40F8043B51F8043B40F8043BC0
:1022200051F8043B40F8043B403ABDD2303211D360
:1022300051F8043B40F8043B51F8043B40F8043BA0
:1022400051F8043B40F8043B51F8043B40F8043B90
:10225000103AEDD20C3205D351F8043B40F8043B60
:10226000043AF9D2043208D0D2071CBF11F8013B5E
:1022700000F8013B01D30B8803806046704700BF24
:10228000082A13D38B078DD010F003038AD0C3F133
:102290000403D21ADB071CBF11F8013B00F8013B15
:1022A00080D331F8023B20F8023B7BE7043AD9D3D4
:1022B000013A11F8013B00F8013BF9D20B780370A9
:1022C0004B7843708B78837060467047002950D0FC
:1022D00038B551F8043C0C1F002BB8BFE418054674
:1022E00000F0F2F8274A13682BB1A3420CD92168F9
:1022F000601883422CD0636028461460BDE83840E3
:1023000000F0E8B8A3420FD81A465B68002BF9D159
:1023100011685018844217D02CD36360546028464B
:10232000BDE8384000F0D6B811685018A04214D06B
:1023300020D8216860188342EFD118685B68084490
:10234000C4E900035460EAE723680B441360E6E73E
:1023500018685B6808442060CDE720680144501885
:1023600083421160DBD1D3E900040144C2E90014C7
:10237000D5E770470C232B602846BDE8384000F0B5
:10238000A9B800BF4405002070B5104E336805465B
:102390000C46B3B12146284600F0A8FF431C0CD0E0
:1023A000C41C24F00304A04205D0211A284600F0E2
:1023B0009DFF013001D0204670BD4FF0FF34204614
:1023C00070BD194600F092FF3060E3E74005002041
:1023D0002DE9F041CD1C25F0030508350C2D38BF43
:1023E0000C25002D82B0064616DBA94214D8354FC5
:1023F00000F06AF87A68AAB1144603E063682246DE
:1024000083B11C4623685B1BF8D40B2B21D8A24256
:10241000636855D053600DE00C233360002002B098
:10242000BDE8F08129463046FFF7AEFF431C044665
:1024300019D00560304600F04DF804F10B00231D63
:1024400020F00700C21A1CBF1B1AA35002B0BDE83F
:10245000F0816119A242256014BF51607960635117
:1024600063684B60E6E77B6823B31C465B68002B20
:10247000FBD1226801931946304604EB020800F0B4
:1024800035FF804516D12268AD1A29463046FFF740
:102490007BFF01300ED022687868019B2A442260BD
:1024A000426812B90CE010465268A242FBD10023E8
:1024B0004360BFE70C233360304600F00BF8ADE714
:1024C0007B60B7E7400500200148FFF75BBE00BF17
:1024D000300500200148FFF75DBE00BF3005002039
:1024E0009368013B002B936011DA10B49469A34206
:1024F00009DB0A2907D01368581C106019700846B8
:102500005DF8044B70475DF8044B00F0BFBD1368E5
:10251000581C106019700846704700BF9BB1F8B591
:10252000134406460F46541E5D1E01E0AC4208D01F
:1025300014F8011F3A463046FFF7D2FF431CF5D18D
:10254000F8BD0020F8BD0020704700BF936810B5AB
:1025500014461BB918460023636010BD00F016FC3A
:102560000023A3600023636010BD00BF2DE9F04F7E
:10257000A1B08B4691461C46049018B1036A002B0B
:1025800000F04781DBF86420BBF90C30D20702D49D
:102590009F0540F137811E0740F19E80DBF8103027
:1025A000002B00F099800023CA460D9343F22003CC
:1025B000ADF839309AF80030974E07940127002B78
:1025C0007AD0D14604E019F8013F002B00F09A8040
:1025D000252BF8D1B9EB0A0840F0978099F8003024
:1025E000002B69D000234FF0FF32CDE9092309F118
:1025F000010908930B938DF863301E9305E0089A48
:1026000007FA03F31A430892A1464C46052214F830
:10261000011B304600F07CFEA246831B0028EED151
:10262000089BD80644BF20228DF86320190799F82B
:10263000001044BF2B228DF863202A297BD1079AF2
:102640001168043200290792C0F2B0800B9199F80A
:1026500001102E2900F08680704C0322204600F0E5
:1026600057FE38B1089B001B4022824013430AF1F9
:10267000010A08931AF8011B69488DF838100622E0
:1026800000F046FE002800F09780664B002B7ED0BD
:1026900007AA0092644B04985A4608A9AFF3008039
:1026A0000390039B013307D00D9B039A13440D93B2
:1026B0009AF80030002B84D1DBF8643013F0010F5E
:1026C000BBF80C3002D19A0540F195805B0616D418
:1026D0000D9821B0BDE8F08F0498594600F026FD12
:1026E00000283FF460AFDBF86430DD0707D4BBF8A7
:1026F0000C309C0503D4DBF85800FFF74BFD4FF07E
:10270000FF30E6E7B9EB0A08D6D00AF1FF35CDF87D
:102710001490A946049D01E0A0453FD94C465A4675
:1027200019F8011F2846FFF7DBFE02340130A4EB45
:102730000A04F1D1C0E7A1F13002092A88BFCA46D4
:1027400087D80B9B00E00134217803EB830302EB75
:102750004303A1F13002092AF5D92E290B93A24691
:102760007FF47AAF9AF801102A292FD1079B9AF8A3
:1027700002101A6809920433002A0AF10200079332
:10278000B8BF4FF0FF338246B8BF099364E7079B99
:10279000073323F007030833079385E70D99DDF826
:1027A0001490414499F800300D9119E7494243F0E3
:1027B00002030B9108934AE707AA00921A4B049868
:1027C0005A4608A900F0D2F803906AE7A1F1300256
:1027D0000023092A09930AF1010A3FF63DAF1AF8CE
:1027E000011F03EB830302EB4303A1F13002092A2B
:1027F000F5D9099330E7DBF85800FFF7CBFCBBF8BD
:102800000C3063E7DBF85800FFF7BCFCBBF90C3079
:10281000C1E6FFF7F7FAB5E610F0000818F0000877
:102820001CF00008000000001D25000810B4054C35
:102830008446134620685DF8044B0A466146FFF75C
:1028400095BE00BF0C0000202DE9F84F92461F46B0
:102850000A698B68DDF828909A42B8BF1A46CAF810
:10286000002091F843300C46064613B10132CAF8F5
:102870000020226891065FD5DAF800300233CAF8EA
:102880000030226812F0060F11461DD1E16899420E
:10289000D8BF114618DD04F1190B4FF0000805E010
:1028A000E568DAF80030ED1A45450CDD01235A469B
:1028B00039463046C847013008F10108F0D14FF0E1
:1028C000FF30BDE8F88F216894F84330003B18BF13
:1028D00001238A060AD5E1185A1C302081F84300EA
:1028E000224494F8451082F84310023304F1430265
:1028F00039463046C8470130E1D02368DAF8005045
:10290000216903F00603042BD4E902201BD08A427C
:1029100020DD4FF00008521A90441A34002501E0DF
:10292000454517DA0123224639463046C84701306B
:1029300005F10105F4D1C2E712F0060F0DD0003BFE
:1029400018BF0123D2E7401B8A4220EAE078E2DC8C
:102950000028E2DC0020BDE8F88FE168DAF80030FA
:102960009942D8BF114696DCAEE700BF2DE9F0478B
:102970000C4684B01746227E0C990646984604F110
:10298000430C002A35D0A2F15803D8B2202869D8C8
:10299000202B67D8DFE813F0E000660066006600D1
:1029A00066006600660066006600660066009400C9
:1029B00070006600660066006600700066006600D3
:1029C0006600660021008300AE00660066009E007F
:1029D0006600830066006600E6000B682268606996
:1029E0001D1D0D6011061B6802D4520600F1DC802B
:1029F00018600023E1462361CDF800803B4603AA1E
:102A000021463046FFF720FF013020D023694A4697
:102A100039463046C047013019D02368E068DDF8F8
:102A20000C909B0718D5484516DD04F1190A0025BE
:102A300004E0E068A0EB0903AB420DDD0123524640
:102A400039463046C047013005F10105F1D14FF05C
:102A5000FF3004B0BDE8F0874845B8BF484604B031
:102A6000BDE8F08784F84220012004F142090023E8
:102A7000206184F84330BFE70A682368101D0860AE
:102A8000180602D4590600F1938010680146002808
:102A90006268C0F2918053484FF00A0E4AE00B681A
:102AA00020681D1D0D60050601D441067ED41968FD
:102AB0004C486F2A14BF4FF00A0E4FF0080E35E055
:102AC0000B681A6804330B6004F1420984F8422051
:102AD0000120CCE70B686268181D0860D3F80090ED
:102AE0000021484600F014FC002879D0A0EB090032
:102AF0006060BCE7236843F02003236078223A48F3
:102B000084F845200A68151D0D601D064AD4590633
:102B100048D51188DD0744BF43F02003236019B96D
:102B2000236823F0200323604FF0100E0023626817
:102B300084F84330002AA26016DB236823F00403E4
:102B4000236089B9002A45D1E146BEF1080F1CD0A7
:102B5000ACEB090323614FE7582384F84530214843
:102B60002368CFE72368C9E77546E146B1FBF5F373
:102B700005FB131A0A46AA4210F80A1009F8011DAB
:102B80001946F3D2BEF1080FE2D12368D807DFD58A
:102B9000626823699A42DBDC302309F8013C09F1C1
:102BA000FF39D5E71168B5E7188022E719887FE774
:102BB000B2F9001008466AE72D20002AA26084F8C6
:102BC000430002DB23F0040323600A250548494241
:102BD000AE46CAE7037884F8423004F14209B4E70C
:102BE000606844E724F0000838F00008B1F90C30C0
:102BF0001A072DE9F0410C4680463DD44A68002A68
:102C000056DDE56A002D34D00022D8F80060C8F8FF
:102C1000002013F48052216A57D101234046A8476F
:102C2000431C024661D0B4F90C30E56A216A5F07A3
:102C300005D56368D21A636B0BB1236CD21A0023DB
:102C40004046A847451C42D00023636023692360A7
:102C5000A389D90400D56065616BC8F8006041B1F3
:102C600004F14403994202D04046FFF72FFB0023B2
:102C700063630020BDE8F0810E69002EF9D09B0748
:102C80000D6808BF4B690E6018BF0023AD1B8B6039
:102C90000BE02B463246216AA76A4046B847B0F19E
:102CA000000CA5EB0C05664406DD002DF1DCE0E729
:102CB0000A6C002AA5DCDCE7B4F90C3043F04003D1
:102CC000A3814FF0FF30BDE8F081626DAFE7D8F827
:102CD0000020B4F90C309AB11D2A01D0162AEDD18A
:102CE00023690022C4E90032B6E7D8F80030002B8F
:102CF00099D01D2B01D0162BDED1C8F80060B8E7A3
:102D0000626022692260DA04A5D4A5E738B50B69B0
:102D1000CBB10C46054608B1036ABBB1B4F90C301F
:102D20008BB1626ED00701D4990512D52846214691
:102D3000FFF75CFF636EDA07054602D4A3899B05A3
:102D40000BD5284638BD0025284638BDFFF75AF870
:102D5000E4E7A06DFFF716FAE8E7A06DFFF71AFAAF
:102D6000EFE700BF014618B1044B1868FFF7CEBF6C
:102D7000034A04490448FFF795B800BF0C0000203F
:102D8000000000200D2D0008100000209368002B8B
:102D900000F0F8802DE9F04FB1F90CC01CF0080FDD
:102DA00083B0904681460C4631D00B697BB31CF052
:102DB0000207D8F8006038D00027D4F828B0216A7C
:102DC000DFF8C4A23D4655452B463A4628BF534638
:102DD0004846C5B1D847002840F3CA80D8F8083023
:102DE0001B1A07442D1AC8F80830002B00F0B680D3
:102DF00055452B46D4F828B0216A28BF53463A4699
:102E00004846002DE6D1D6E900750836DBE72146B5
:102E1000484600F08BF9002840F0AF80B4F90CC0B0
:102E2000D8F800601CF00207C6D11CF0010A63D17B
:102E30002368A168574618468B46002F58D01CF4CB
:102E4000007F00F0B580B9420A4600F2E1801CF430
:102E5000906F2FD0216962695D1A02EB420202EB8A
:102E6000D2726B1C52103B44934292BF93469B46D6
:102E70001A461CF4806F00F0EA8011464846FFF7BE
:102E8000A7FA002800F0F9802A4621690090FFF790
:102E900083F9A289009B22F4906242F08002A28111
:102EA0005819ABEB0505C4F814B02361A560206088
:102EB000BB463A465146009200F098F9A168236853
:102EC000009AA1EB0B011A443D46A1602260002745
:102ED000D8F808305B1BAA44C8F80830002B3DD056
:102EE0002368A168B4F90CC018468B46002FA6D100
:102EF000D6E900A708369EE73846BB463D46009710
:102F0000002D41D0002846D0009A2068A168D4E95D
:102F10000473AA4228BF2A46B84204D901EB030A27
:102F2000524500F38580934275DC216AA76A5A46B0
:102F30004846B847B0F1000A1ADD009BB3EB0A031C
:102F400000930FD00120D8F80830A3EB0A03D34434
:102F5000A5EB0A05C8F80830002BD1D1002003B03A
:102F6000BDE8F08F21464846FFF7D0FE0028EAD0A2
:102F7000B4F90C3043F04003A3814FF0FF3003B0AD
:102F8000BDE8F08F00207047756833460836002D85
:102F9000FAD0D3F800B02A460A21584600F0B8F912
:102FA000002867D00130A0EB0B0300931A46ACE772
:102FB00022699A4214D36269BA4211D86FF0004371
:102FC000BB4228BF3B46A56A93FBF2F3216A02FB92
:102FD00003F348465246A847051EC9DD7F1B77E725
:102FE000B94228BF39460D4618460A46514600F0F8
:102FF000FDF8A1682368491B2B44A16023600029C8
:10300000ECD121464846FFF781FE0028E6D0AFE725
:10301000BB463A464EE75946019200F0E7F8019A5E
:10302000A3689B1AA360236813442360924684E735
:103030005946524600F0DAF823685344236021468B
:103040004846FFF763FE00283FF477AF90E7484615
:1030500000F0AEF9034600287FF422AF216948460C
:10306000FFF734F9B4F90C300C2223F08003C9F8CF
:1030700000207FE76A1C009247E70C22B4F90C306D
:10308000C9F8002076E700BF00FCFF7FF8B50D46C9
:103090001446064610B1036A002B37D0A389A269F3
:1030A000A2601A0719D52369BBB122686169D31AD6
:1030B000EDB299422F4620DD0133A1680139A160AC
:1030C000511C2160157062699A420DD0A389DB07FB
:1030D00001D50A2D08D03846F8BD2146304600F00B
:1030E00025F838B92369E0E721463046FFF70EFEA0
:1030F0000028F0D04FF0FF37EDE721463046FFF7CC
:1031000005FE0028F6D122680123D6E7FEF77AFEF5
:10311000C4E700BF10B4044C03460A4620685DF8BB
:10312000044B1946FFF7B2BF0C00002038B52E4BF8
:103130001B6805460C4613B11A6A002A4BD0B4F935
:103140000C3018071CD5226922B313F0010107D0F7
:10315000616900204942A060A1613AB1002038BDF8
:10316000980758BF6169A160002AF7D1190658BFB6
:103170001046F4D543F04003A3814FF0FF3038BD33
:10318000D9062CD55A0712D4226943F00803A3812B
:10319000002ADAD103F42071B1F5007FD5D02146A1
:1031A000284600F039F9B4F90C302269CDE7616B9B
:1031B00051B104F14402914204D02846FFF786F849
:1031C000B4F90C300022626322690021C4E90021B5
:1031D00023F02403D9E71846FEF714FEAFE70922CF
:1031E0002A6043F04003C7E70C00002088420ED954
:1031F0008B1883420BD900EB020C002A6ED062467A
:1032000013F801CD02F801CD9942F9D170470F2A88
:103210000FD8034602F1FF3C002A5FD00CF1010CED
:10322000013B8C4411F8012B03F8012F6145F9D1C2
:10323000704740EA01039B0751D1A2F1100370B51A
:1032400001F1200C23F00F0501F1100E00F1100424
:10325000AC441B095EF8105C44F8105C5EF80C5C32
:1032600044F80C5C5EF8085C44F8085C5EF8045CAA
:1032700044F8045C0EF1100EE64504F11004E9D1A7
:10328000013312F00C0F01EB031102F00F0400EBFD
:10329000031328D0043C24F003064FEA940C1E4488
:1032A0001C1F8E465EF8045B44F8045FB442F9D1FB
:1032B0000CF1010402F0030203EB840301EB84012F
:1032C00002F1FF3C4AB10CF1010C013B8C4411F8B6
:1032D000012B03F8012F6145F9D170BD704702F150
:1032E000FF3C03469AE72246EAE700BF38B5074DA0
:1032F0000022044608462A6001F034FD431C00D039
:1033000038BD2B68002BFBD0236038BD1C05002086
:1033100001F0FF01102A2BDB10F0070F08D010F886
:10332000013B013A8B422DD010F0070F42B3F6D18A
:10333000F0B441EA012141EA014122F007047FF0A3
:1033400000070023F0E80256083C85EA010586EAFA
:10335000010685FA47F5A3FA87F586FA47F6A5FA36
:1033600087F68EB9EED1F0BC01F0FF0102F0070242
:1033700032B110F8013B013A83EA010313B1F8D1ED
:103380000020704701387047002D06BF35460338CE
:10339000073815F0010F07D1013015F4807F02BF07
:1033A000013015F4C03F0130F0BC0138704700BF58
:1033B0002DE9F041144649B3EAB106460D4600F046
:1033C000DDF88442074602D8B4EB500F1AD82146E4
:1033D0003046FEF7FDFF804678B1BC4222462946C2
:1033E00028BF3A46FEF7D8FE30462946FEF76EFF64
:1033F0004046BDE8F081FEF769FF4FF00008404607
:10340000BDE8F081A8464046BDE8F081BDE8F04146
:103410001146FEF7DDBF00BF70B5B1F90C300C46A8
:10342000990796B007D504F147030122C4E9043295
:10343000236016B070BDB4F90E100029054629DBD3
:103440006A4600F073F8002822DB4FF480612846BA
:10345000019EFEF7BDFF88B3A389206043F080037F
:1034600006F47046A381B6F5005F4FF48063C4E9AB
:103470000403DED1B4F90E10284600F06DF80028E0
:10348000D7D0A38923F0030343F00103A381D0E73E
:10349000B4F90C3013F0800F14BF40264FF480664F
:1034A00031462846FEF794FF40B1A389206043F0DF
:1034B0008003C4E90406A38116B070BDB4F90C30D2
:1034C0009A05B6D423F0030304F1470243F0020344
:1034D0000121C4E90421A3812260AAE770B50C464A
:1034E000B1F90E10002996B015461E460FDB6A464C
:1034F00000F01CF800280ADB019B03F47043A3F5DD
:103500000053B3FA83F34FF480625B0908E0A289A9
:1035100012F0800F4FF0000314BF40224FF480627E
:10352000002033602A6016B070BD00BF70B50C4635
:10353000084D03460026204611461C462E6001F029
:1035400004FC431C00D070BD2B68002BFBD0236013
:1035500070BD00BF1C05002038B5074D0022044691
:1035600008462A6001F0F6FB431C00D038BD2B68EA
:10357000002BFBD0236038BD1C05002051F8043C13
:10358000181F002BBCBF0B58C018704781F00041BA
:1035900002E000BF83F0004330B54FEA41044FEA38
:1035A000430594EA050F08BF90EA020F1FBF54EAD3
:1035B000000C55EA020C7FEA645C7FEA655C00F06F
:1035C000E2804FEA5454D4EB5555B8BF6D420CDD40
:1035D0002C4480EA020281EA030382EA000083EAC3
:1035E000010180EA020281EA0303362D88BF30BD63
:1035F00011F0004F4FEA01314FF4801C4CEA1131B9
:1036000002D0404261EB410113F0004F4FEA033317
:103610004CEA133302D0524263EB430394EA050FA2
:1036200000F0A780A4F10104D5F1200E0DDB02FA11
:103630000EFC22FA05F2801841F1000103FA0EF2A5
:10364000801843FA05F359410EE0A5F120050EF16B
:10365000200E012A03FA0EFC28BF4CF0020C43FA9C
:1036600005F3C01851EBE37101F0004507D54FF0A9
:10367000000EDCF1000C7EEB00006EEB0101B1F5F9
:10368000801F1BD3B1F5001F0CD349085FEA30003F
:103690004FEA3C0C04F101044FEA445212F5800F4A
:1036A00080F09A80BCF1004F08BF5FEA500C50F1E7
:1036B000000041EB045141EA050130BD5FEA4C0CCA
:1036C000404141EB0101013C28BFB1F5801FE9D227
:1036D00091F0000F04BF01460020B1FA81F308BF4A
:1036E0002033A3F10B03B3F120020CDA0C3208DD16
:1036F00002F1140CC2F10C0201FA0CF021FA02F1F1
:103700000CE002F11402D8BFC2F1200C01FA02F160
:1037100020FA0CFCDCBF41EA0C019040E41AA2BF85
:1037200001EB0451294330BD6FEA04041F3C1CDA4D
:103730000C340EDC04F11404C4F1200220FA04F06D
:1037400001FA02F340EA030021FA04F345EA030117
:1037500030BDC4F10C04C4F1200220FA02F001FAD9
:1037600004F340EA0300294630BD21FA04F029465B
:1037700030BD94F0000F83F4801306BF81F48011F4
:103780000134013D4EE77FEA645C18BF7FEA655C67
:1037900029D094EA050F08BF90EA020F05D054EA39
:1037A000000C04BF1946104630BD91EA030F1EBF3E
:1037B0000021002030BD5FEA545C05D14000494142
:1037C00028BF41F0004130BD14F580043CBF01F535
:1037D000801130BD01F0004545F0FE4141F470011B
:1037E0004FF0000030BD7FEA645C1ABF19461046F6
:1037F0007FEA655C1CBF0B46024650EA013406BFF7
:1038000052EA033591EA030F41F4002130BD00BFB5
:1038100090F0000F04BF0021704730B54FF4806472
:1038200004F132044FF000054FF0000150E700BFF3
:1038300090F0000F04BF0021704730B54FF4806452
:1038400004F1320410F0004548BF40424FF000013F
:103850003EE700BF42004FEAE2014FEA31014FEA82
:1038600002701FBF12F07F4393F07F4F81F06051D1
:10387000704732F07F4208BF704793F07F4F04BF1C
:1038800041F40021704730B54FF4607401F00045F9
:1038900021F000411CE700BF50EA010208BF704759
:1038A00030B54FF000050AE050EA010208BF70474A
:1038B00030B511F0004502D5404261EB41014FF4B3
:1038C000806404F132045FEA915C3FF4D8AE4FF0BB
:1038D00003025FEADC0C18BF03325FEADC0C18BF9E
:1038E000033202EBDC02C2F1200300FA03FC20FAEF
:1038F00002F001FA03FE40EA0E0021FA02F114443C
:10390000BDE600BF53B94AB9002908BF00281CBF53
:103910004FF0FF314FF0FF3000F00CB8ADF1080C64
:103920006DE904CE0AF035FFDDF804E0DDE902239D
:1039300004B07047704700BF10B5054C237833B909
:10394000044B13B10448AFF300800123237010BD72
:10395000480500200000000034EA000808B5034BC9
:103960001BB103490348AFF3008008BD000000000D
:103970004C05002034EA000808B50268034B9A425F
:1039800000D008BD02F08EFBFBE700BF0010004036
:1039900072B6FEE700B595B03022002108A8FEF708
:1039A00013FB00230393049305930693079301935A
:1039B000204A116C41F080511164126C02F0805267
:1039C0000192019A02931C4B1A6842F440421A6019
:1039D0001B6803F440430293029B012308934FF4B6
:1039E0008033099302230E934FF480020F92062234
:1039F0001092A822119212930423139308A801F0A5
:103A000057FC98B90F2303930223049300230593D3
:103A10004FF4A05306934FF480530793052103A856
:103A200001F096FE20B915B05DF804FBFFF7B0FF7A
:103A3000FFF7AEFF003802400070004008B502F00A
:103A400017FBFFF7A7FF00F01DF800F01BFC00F0CC
:103A500043FB00F05BFC00F0BFFC00F08BFD00F0CE
:103A6000E1FD00F075FE00F03FFE00F057FB00F0B6
:103A700055FE00F089FE00F01DFE00F05FFA04F034
:103A800041FFFEE730B58DB00024079408940994F7
:103A90000A940B9400942C4B1A6B42F010021A6398
:103AA0001A6B02F010020092009A01941A6B42F015
:103AB00002021A631A6B02F002020192019A029446
:103AC0001A6B42F040021A631A6B02F04002029233
:103AD000029A03941A6B42F001021A631A6B02F005
:103AE00001020392039A04941A6B42F008021A63CB
:103AF0001A6B02F008020492049A05941A6B42F0C1
:103B000020021A631A6B02F020020592059A0694AD
:103B10001A6B42F080021A631B6B03F0800306935A
:103B2000069B0A4D22464021284602F009F8402310
:103B300007930123089309940A9407A9284601F0E2
:103B4000FBFE0DB030BD00BF003802400014024043
:103B500030B583B004F0E4FB01900B4DAB680B4C27
:103B600020469847EB68204698476B682046984760
:103B7000074B5B689847074B1B689847022101A8D1
:103B800004F0DCFCE9E700BF7C000020D05C0020F2
:103B900074030020A000002000B583B004F0C0FB37
:103BA0000190044B1B689847022101A804F0C6FC51
:103BB000F7E700BF7C03002010B51C4B1B6898473B
:103BC0001B4B1B6898471B4B1B6898471A480AF009
:103BD000A3F91A4B5B681A4898471A4BDB681A48D6
:103BE00098471A4B1B6840F28512194919489847A3
:103BF00008F01CFE184C23680121184898472368D8
:103C0000022117489847174B1B689847164B1B68AB
:103C10009847164B1B689847154B164AC3F89020D7
:103C2000C3F89420002004F0C9FA10BD90000020D1
:103C3000740300207C0000206C5C0020B000002099
:103C4000980B0020A0000020200C00201C01002068
:103C500042600020540B0020A40300201008002024
:103C6000E8070020E000002068030020880300200F
:103C700074620020E093040010B590B013E02F4B65
:103C80001C68EC460DF12C0EBEE80F00ACE80F00EE
:103C9000DEF80030CCF8003007AB0FCBA047284A45
:103CA0005388013353804FF0FF3207A9254B186822
:103CB00003F0D8FF079B40F211229342DFD0A3F21A
:103CC0004112012A18D940F20B22934225D040F22A
:103CD0000A229342E3D11C4B5C68EC460DF12C0E9A
:103CE000BEE80F00ACE80F00DEF80030CCF8003082
:103CF00007AB0FCBA047D2E7144B1C68EC460DF185
:103D00002C0EBEE80F00ACE80F00DEF80030CCF857
:103D1000003007AB0FCBA047C1E70B4B1C68EC464C
:103D20000DF12C0EBEE80F00ACE80F00DEF80030FD
:103D3000CCF8003007AB0FCBA047B0E72C01002038
:103D400040640020BC070020CC00002010010020AF
:103D500010B590B013E01A4B1C68EC460DF12C0E18
:103D6000BEE80F00ACE80F00DEF80030CCF8003001
:103D700007AB0FCBA047134A5388013353804FF052
:103D8000FF3207A9104B186803F06CFF079B40F245
:103D900006229342DFD0A3F20123012BEBD80B4B79
:103DA0009C68EC460DF12C0EBEE80F00ACE80F004D
:103DB000DEF80030CCF8003007AB0FCBA047DAE7D5
:103DC000EC00002038640020B8070020F800002034
:103DD00000B58BB04FF0FF3201A9054B186803F016
:103DE00041FF012308AA02A9019801F03DF9F1E77A
:103DF000C007002000B583B004F092FA019035E0CE
:103E00002E4B40F203125A8003221A8034E02B4BCF
:103E100040F267125A8067221A802DE008F018FEDF
:103E200008F05CFD09F0B2F9244B01221A7127E079
:103E3000234B1868234B1860234B042283F86C2013
:103E400009F0A4F8214B9B7B002B2DD01D4B204A61
:103E5000106818609188927999809A7107229A77F0
:103E600009F014F9052101A804F068FB194B5B78EF
:103E7000032BC5D0672BCAD0104B1B79002BCDD09C
:103E80004FF47A7004F076FD134B5B78002BCFD0A3
:103E9000022B04D00A4B18680A4B1860CCE70F4B72
:103EA0001868084B1860C7E7064A0D4B03CB106033
:103EB00051600823937709F0E9F8D3E77063002095
:103EC00054EF0008DE630020906300203C63002074
:103ED00064EF000824600020306400205CEF0008DC
:103EE0006CEF000870B584B004F01AFA03900B4B25
:103EF0009E6A586AFFF7AEFC04460D463046FFF74F
:103F0000A9FCCDE9000122462B460548FDF7FEFF3E
:103F10000A2103A804F012FBE9E700BF7462002045
:103F200078EF0008034B0360034B0B6080231360A2
:103F3000704700BF640700206405002010B5C4B0BE
:103F4000594C0DF5807C94E80F008CE80F0000219F
:103F5000604604F016FD554B18600DF1F00C94E826
:103F60000F008CE80F000021604604F00AFD504B62
:103F700018600DF1E00C94E80F008CE80F000021B0
:103F8000604604F0FEFC4B4B18600DF1C40C04F1CC
:103F9000100EBEE80F00ACE80F009EE807008CE8AA
:103FA0000700002131A804F0B2FC434B18600DF16A
:103FB000A80C04F12C0EBEE80F00ACE80F009EE840
:103FC00007008CE8070000212AA804F0A0FC3B4B66
:103FD00018600DF18C0C04F1480EBEE80F00ACE83F
:103FE0000F009EE807008CE80700002123A804F0DA
:103FF0008EFC334B18600DF1700C04F1640EBEE8BA
:104000000F00ACE80F009EE807008CE807000021D5
:104010001CA804F07CFC2B4B18600DF1540C04F12F
:10402000800EBEE80F00ACE80F009EE807008CE8A9
:104030000700002115A804F06AFC234B18600DF15D
:10404000380C04F19C0EBEE80F00ACE80F009EE8AF
:1040500007008CE8070000210EA804F058FC1B4B59
:1040600018600DF11C0C04F1B80EBEE80F00ACE8AE
:104070000F009EE807008CE80700002107A804F065
:1040800046FC134B1860EC46D4340FCCACE80F0060
:1040900094E807008CE807000021684604F037FC2C
:1040A0000C4B186044B010BD4CEA0008C00700205B
:1040B000BC070020B8070020E0070020DC07002034
:1040C000D8070020D4070020D0070020CC0700200C
:1040D000C8070020C407002008B50E480E4B036037
:1040E0000323436000238360C3604FF41022026106
:1040F0004FF4001242610376012242768276C27644
:104100000377437700F040FE00B908BDFFF740FC9D
:10411000FBE700BF100800200064004008B50E480F
:104120000E4B03600323436000238360C3604FF49E
:10413000102202614FF4001242610376012242769E
:104140008276C2760277437700F01EFE00B908BD82
:10415000FFF71EFCFBE700BFE807002000680040F7
:1041600010B58AB00023059306930793089309932B
:1041700003683E4A934204D03D4A934234D00AB089
:1041800010BD3C4A136801331360012B1FD000247B
:104190000194394B1A6B42F008021A631B6B03F04F
:1041A00008030193019B03230593022206920893BF
:1041B0000923099305A9314801F0BEFB22460521D8
:1041C000142001F037FF142001F044FFD7E700234B
:1041D0000093294B1A6C42F000721A641B6C03F0B6
:1041E00000730093009BD2E700230293224B1A6CCA
:1041F00042F080621A641B6C03F080630293029B9E
:104200001C4A136801331360012B21D0002404944D
:10421000194B1A6B42F002021A631B6B03F0020384
:104220000493049B4FF44053059302230693032306
:1042300008930923099305A9114801F07DFB224643
:104240000621402001F0F6FE402001F003FF96E732
:1042500000230393084B1A6C42F000721A641B6C23
:1042600003F000730393039BD0E700BF006400409A
:1042700000680040E407002000380240000C0240C3
:104280000004024010B582B0002400941E4B1A6B4B
:1042900042F480021A631A6B02F480020092009AC0
:1042A00001941A6B42F400121A631B6B03F400139F
:1042B0000193019B224605210B2001F0BBFE0B2040
:1042C00001F0C8FE224605210E2001F0B3FE0E20AB
:1042D00001F0C0FE22460521112001F0ABFE1120A5
:1042E00001F0B8FE22460521392001F0A3FE392055
:1042F00001F0B0FE224605213A2001F09BFE3A2053
:1043000001F0A8FE02B010BD0038024008B5134805
:10431000134B0360134B436000238360C3604FF46F
:104320008042026143618361C361036201F0E0FE88
:1043300050B91021094801F0B9FF40B900210748E0
:1043400001F0D6FF30B908BDFFF722FBF1E7FFF718
:104350001FFBF3E7FFF71CFBF5E700BF3808002061
:1043600000580040A086010030B589B000230393B7
:1043700004930593069307930268144B9A4201D065
:1043800009B030BD00250195114C236B43F020038B
:104390002363236B03F020030193019B0323039307
:1043A000122204920122059206930423079303A983
:1043B000084801F0C1FA0295236C43F4800323649A
:1043C000236C03F480030293029BD9E7005800405A
:1043D000003802400014024008B50E480E4B03603E
:1043E0004FF48273436000238360C36003614361C1
:1043F0004FF4007282612822C261036243628362C9
:104400000A23C36202F02EF800B908BDFFF7C0FA14
:10441000FBE700BF8C0800200050014000B589B0C8
:104420000023039304930593069307930268154BA7
:104430009A4202D009B05DF804FB0021019103F516
:1044400068435A6C42F480125A645A6C02F4801227
:104450000192019A02911A6B42F020021A631B6BBF
:1044600003F020030293029B4FF460730393022333
:104470000493032306930523079303A9024801F03D
:104480005BFAD7E7005001400014024082B0036895
:10449000104A934204D0104A93420ED002B07047A3
:1044A000002300930D4B1A6C42F002021A641B6C3D
:1044B00003F002030093009BF0E700230193074BF6
:1044C0001A6C42F040021A641B6C03F04003019323
:1044D000019BE3E700040040001800400038024060
:1044E00000B589B0002303930493059306930793C3
:1044F00003681B4A934205D01A4A934218D009B068
:104500005DF804FB00230193174B1A6B42F0020283
:104510001A631B6B03F002030193019B2023039397
:1045200002230493079303A9104801F005FAE6E774
:10453000002302930C4B1A6B42F080021A631B6B30
:1045400003F080030293029B40230393022304930E
:104550000923079303A9064801F0EEF9CFE700BF4E
:1045600000040040001800400038024000040240EF
:10457000001C024000B58FB000230A930B930C93EC
:104580000D93089309930193029303930493059366
:10459000069307932148224A02604360836041F2F8
:1045A0008732C2600361836102F00AFB30BB4FF4C3
:1045B00080530A930AA9194802F00DFC08BB17485A
:1045C00002F02AFB00BB00230893099308A91348B3
:1045D00002F012FDD8B960230193002302930393E4
:1045E000059304220DEB02010C4802F079FB88B917
:1045F0000A48FFF775FF0FB05DF804FBFFF7C8F935
:10460000D5E7FFF7C5F9DAE7FFF7C2F9DBE7FFF710
:10461000BFF9E0E7FFF7BCF9EAE700BF2C0900208B
:104620000004004000B58DB00023089309930A935D
:104630000B930193029303930493059306930793BB
:104640001A481B4A02602A2242608360C3600361E9
:10465000836102F0B5FAE0B94FF48053089308A9DA
:10466000124802F0B8FBB8B9104802F0D5FAB0B958
:1046700060230193002202920392059201A90B4844
:1046800002F02EFB70B90948FFF72AFF0DB05DF864
:1046900004FBFFF77DF9DFE7FFF77AF9E4E7FFF7BF
:1046A00077F9E5E7FFF774F9EDE700BFE4080020CC
:1046B0000018004008B50A480A4B03604FF4E13384
:1046C000436000238360C36003610C224261836105
:1046D000C36102F0E1FD00B908BDFFF759F9FBE73E
:1046E000640C0020004C004008B50A480A4B0360E7
:1046F0004FF4E123436000238360C36003610C2215
:1047000042618361C36102F0C7FD00B908BDFFF7D4
:104710003FF9FBE7200C00200078004008B50A486C
:104720000A4B03604FF4E133436000238360C360AE
:1047300003610C2242618361C36102F0ADFD00B9E7
:1047400008BDFFF725F9FBE7DC0B0020007C0040EB
:1047500008B50A480A4B03600A4B43600023836094
:10476000C36003610C2242618361C36102F094FD66
:1047700000B908BDFFF70CF9FBE700BF980B00205C
:1047800000100140A086010008B50A480A4B0360EA
:104790004FF4E133436000238360C36003610C2264
:1047A00042618361C36102F077FD00B908BDFFF784
:1047B000EFF8FBE7540B00200014014030B591B036
:1047C00000230B930C930D930E930F930368934A5E
:1047D000934210D00446924A93422ED0914A93427B
:1047E00076D0914A934200F0D180904A934200F0F3
:1047F000378111B030BD002101918D4B1A6C42F40C
:1048000000221A641A6C02F400220192019A0291A9
:104810001A6B42F001021A631B6B03F0010302934F
:10482000029B03230B9302220C920E9308230F93F7
:104830000BA9804801F080F8DBE7002503957C4B4D
:104840001A6C42F080421A641A6C02F080420392A1
:10485000039A04951A6B42F010021A631B6B03F063
:1048600010030493049B4FF4C0730B9302230C9327
:1048700001230D9303230E9308230F930BA96E4876
:1048800001F05AF86D486E4B03604FF020634360AF
:104890008560C5604FF480630361456185614FF4B5
:1048A0008073C3614FF400330362456201F0CEF9B7
:1048B00058B9624BA3639C6300220521522001F08A
:1048C000B9FB522001F0C6FB93E7FFF761F8F0E770
:1048D00000250595564B1A6C42F000421A641A6C7A
:1048E00002F000420592059A06951A6B42F01002FA
:1048F0001A631B6B03F010030693069B03230B93B1
:1049000002220C920E9308230F930BA94A4801F040
:1049100013F84C484C4B03604FF0206343608560B4
:10492000C5604FF480630361456185614FF4807316
:10493000C3614FF400330362456201F087F9F8B9AF
:10494000404BA3639C634148414B03604FF020639D
:104950004360402383600023C3604FF480620261A0
:10496000436183614FF48072C2614FF4003202628E
:10497000436201F06BF930B9344B63639C6338E7F1
:10498000FFF706F8DCE7FFF703F8F5E700250795E2
:10499000274B5A6C42F010025A645A6C02F0100213
:1049A0000792079A08951A6B42F002021A631B6B72
:1049B00003F002030893089BC0230B9302230C937C
:1049C00001230D9303230E9307230F930BA9214873
:1049D00000F0B2FF2048214B03604FF000634360BA
:1049E0008560C5604FF480630361456185614FF464
:1049F0008073C3610562456201F028F958B9164B0E
:104A0000A3639C6300220521252001F013FB2520D0
:104A100001F020FBEDE6FEF7BBFFF0E7004C0040A5
:104A200000780040007C004000100140001401406C
:104A3000003802400000024000100240F40A00204A
:104A400058600240940A0020A0600240340A00200E
:104A50001060024000040240D4090020406402407B
:104A600000250995224B5A6C42F020025A645A6C78
:104A700002F020020992099A0A951A6B42F040024C
:104A80001A631B6B03F040030A930A9B4FF48443A1
:104A90000B9302230C9303230E9308230F930BA96C
:104AA000144800F049FF1448144B03604FF0206392
:104AB00043608560C5604FF4806303614561856133
:104AC0004FF48073C3610562456201F0BFF858B9C5
:104AD000094BA3639C6300220521472001F0AAFA39
:104AE000472001F0B7FA84E6FEF752FFF0E700BF77
:104AF0000038024000180240740900202864024077
:104B0000FEE7FEE7FEE7FEE7FEE7704708B502486E
:104B100001F05CF908BD00BF340A002070470000B6
:104B200008B5024801F052F908BD00BF940A002000
:104B300008B5074B1B685B6913F0020F06D0054BE5
:104B40005B680122044909680148984708BD00BF15
:104B500010080020A4030020BC0700200D4B1B6898
:104B60001A6812F0100F14D0DB6813F0100F10D079
:104B700010B582B0084B1B68064C204698470023AE
:104B8000019323681A6801925B680193019B02B04C
:104B900010BD7047980B0020B000002008B50248F7
:104BA00001F0EDFE08BD00BFA80C00207047704763
:104BB00008B5074B1B685B6913F0020F06D0054B65
:104BC0005B680222044909680148984708BD00BF94
:104BD000E8070020A4030020B80700200D4B1B6845
:104BE0001A6812F0100F14D0DB6813F0100F10D0F9
:104BF00010B582B0084B5B68064C204698470023EE
:104C0000019323681A6801925B680193019B02B0CB
:104C100010BD7047540B00201C0100200D4B1B6879
:104C20001A6812F0100F14D0DB6813F0100F10D0B8
:104C300010B582B0084B9B68064C2046984700236D
:104C4000019323681A6801925B680193019B02B08B
:104C500010BD7047200C0020A000002000B583B0DC
:104C6000002200920D4B596C41F480415964596CFB
:104C700001F48041009100990192196C41F080513A
:104C800019641B6C03F080530193019B0F216FF09B
:104C9000010001F0CFF903B05DF804FB00380240D9
:104CA00030B589B0044600230193214B1A6C42F0C1
:104CB00010021A641B6C03F010030193019B02A9FC
:104CC00003A800F01BFE069BCBB900F0F7FD0346DE
:104CD000184AA2FB03239B0C013B1748174A0260AA
:104CE00040F2E732C2604360002303618360836166
:104CF00001F066FF054630B1284609B030BD00F02E
:104D0000DDFD4300E4E70C4801F0F0FD0546002816
:104D1000F2D1362001F09EF90F2C01D90125EBE7E5
:104D200000222146362001F085F9054B1C60E3E79F
:104D30000038024083DE1B43A80C00200010004016
:104D4000600000204FF0FF3070474FF400534B607D
:104D500000207047012070470020704700207047F6
:104D6000104670470346064A126822B1044A10688A
:104D7000034413607047024A02491160F6E700BF1E
:104D8000F00C0020E0640020002800F0A18038B57D
:104D9000044690F82030D3B12268136843F0010331
:104DA000136001F08BF9054623685A6812F0010F71
:104DB00010D101F083F9401B0A28F5D9636A43F446
:104DC00000336362052384F82030012038BDFFF7EB
:104DD000C7F9E1E71A6822F002021A6001F06EF9E1
:104DE000054623685A6812F0020F0DD001F066F9EB
:104DF000401B0A28F5D9636A43F400336362052334
:104E000084F820300120E1E7227E012A3DD01A6893
:104E100022F080021A60637E012B3BD02268136867
:104E200023F040031360A37E012B39D0226813685E
:104E300023F020031360E37E012B37D02268136830
:104E400043F010031360237F012B35D022681368D1
:104E500023F008031360637F012B33D022681368AB
:104E600023F004031360A368E26813432269134329
:104E7000626913436268013A21681343CB610020E1
:104E80006062012384F82030A0E71A6842F08002B3
:104E90001A60C0E72268136843F040031360C2E75A
:104EA0002268136843F020031360C4E72268136884
:104EB00023F010031360C6E72268136843F0080369
:104EC0001360C8E72268136843F004031360CAE75D
:104ED0000120704790F82030013BDBB2012B05D94F
:104EE000436A43F4802343620120704730B5464B48
:104EF000D3F8002242F00102C3F80022D3F80022C6
:104F000022F47C52C3F80022D3F80022486A42EA15
:104F10000022C3F800224A6902F01F02012000FAB1
:104F200002F2D3F81C026FEA020C20EA0200C3F876
:104F30001C02CB69C3B9344BD3F80C020CEA000055
:104F4000C3F80C028C884869CD6844EA05444830AF
:104F500043F830408C68088840EA04404C6904F10A
:104F6000480E03EBCE035860CB69012B1ED08B6932
:104F7000002B33D12448D0F804320CEA0303C0F8E4
:104F800004320B698BBB2048D0F814320CEA0303BF
:104F9000C0F814320B6A012B2ED01B4AD2F8003213
:104FA00023F00103C2F80032002030BD164BD3F8C5
:104FB0000C021043C3F80C028C8848690D6844EA5F
:104FC0000544483043F8304088894C698D6840EA90
:104FD0000540483403EBC4035860C8E70A48D0F8DA
:104FE00004321343C0F80432CBE70748D0F8143238
:104FF0001343C0F81432CDE70349D1F81C321343F0
:10500000C1F81C32C9E700BF0064004070B5044617
:1050100090F82050EDB2012D06D0436A43F40023EE
:1050200043620125284670BD022380F820300268C3
:10503000136823F00103136001F040F8064623686B
:105040005B6813F0010F0CD001F038F8831B0A2BBA
:10505000F5D9636A43F400336362052384F8203092
:10506000E0E700256562DDE730B590F820C0046810
:10507000A4680CF1FF3C5FFA8CFCBCF1010F6BD80B
:1050800014F0E05F62D0C4F3016CBCF1020F05D9EB
:10509000436A43F400034362012062E0012404FAFE
:1050A0000CF41C608B68002B3DD10D68CB68046844
:1050B00043EA45550CF118031B01E55003680C69E0
:1050C0000CF1180E03EB0E135C600B7D012B35D039
:1050D000D17993791B0443EA0163517943EA0123AF
:1050E00014790168234301EB0C11C1F88C31D1789C
:1050F00093781B0443EA0163517843EA0123117852
:1051000002680B4302EB0C12C2F8883102680CF102
:10511000180C4FEA0C1C52F80C3043F0010342F813
:105120000C3000201DE04C6843EAC403CC682343E4
:105130000CF11804240105682B51BFE7036803EB49
:105140000E13596841F480715960C1E7436A43F412
:1051500000134362012004E0436A43F48023436266
:10516000012030BD90F820C00CF1FF3C5FFA8CFCB0
:10517000BCF1010F00F2958030B451B90468E468C5
:1051800014F0030F10D1436A43F40013436201206B
:1051900077E00468246914F0030F05D1436A43F4EF
:1051A0000013436201206CE001F11B042401056837
:1051B0002C5904F004049460002C64D101F11B0408
:1051C000240105682C59640D1460046801F11B0C5E
:1051D0004FEA0C1C54F80C4004F00204D46004683C
:1051E0006444646804F00F041461046864446468EF
:1051F000C4F307249461046864446468240C546113
:10520000026802EB0112D2F8B8211A70026802EBB0
:105210000112D2F8B821C2F307225A70026802EBD9
:105220000112D2F8B821C2F307429A70026802EB69
:105230000112D2F8B821120EDA70026802EB0112E4
:10524000D2F8BC211A71026802EB0112D2F8BC211B
:10525000C2F307225A71026802EB0112D2F8BC2194
:10526000C2F307429A71026802EB0112D2F8BC2124
:10527000120EDA7179B90268D36843F02003D36063
:10528000002030BC704701F11B04240105682C5933
:10529000E408546099E70268136943F0200313613E
:1052A000EEE7436A43F48023436201207047000025
:1052B000002800F0E08170B582B00446036813F066
:1052C000010F3BD09F4B9B6803F00C03042B2CD0A9
:1052D0009C4B9B6803F00C03082B21D06368B3F54B
:1052E000803F4FD0B3F5A02F52D0964B1A6822F4CE
:1052F00080321A601A6822F480221A606368002BD8
:1053000050D000F0DBFE05468E4B1B6813F4003FC7
:1053100014D100F0D3FE401B6428F5D90320B1E17D
:10532000884B5B6813F4800FD8D0864B1B6813F44E
:10533000003F03D06368002B00F09F81236813F0C7
:10534000020F54D07F4B9B6813F00C0F3ED07D4B67
:105350009B6803F00C03082B33D0E368002B68D064
:10536000794B01221A6000F0A9FE0546754B1B68B7
:1053700013F0020F54D100F0A1FE401B0228F5D912
:1053800003207FE16F4A136843F480331360B5E76D
:105390006C4B1A6842F480221A601A6842F4803218
:1053A0001A60ABE700F08AFE0546664B1B6813F4F3
:1053B000003FC3D000F082FE401B6428F5D90320D3
:1053C00060E1604B5B6813F4800FC6D15D4B1B68D6
:1053D00013F0020F03D0E368012B40F05081594ACB
:1053E000136823F0F803216943EAC10313602368BB
:1053F00013F0080F42D063696BB3534B0122C3F81B
:10540000802E00F05BFE05464E4B5B6F13F0020FE3
:1054100034D100F053FE401B0228F5D9032031E1BE
:10542000484A136823F0F803216943EAC103136073
:10543000DDE7454B00221A6000F040FE0546414B77
:105440001B6813F0020FD2D000F038FE401B022878
:10545000F5D9032016E13C4B0022C3F8802E00F062
:105460002DFE0546374B5B6F13F0020F06D000F0A0
:1054700025FE401B0228F5D9032003E1236813F021
:10548000040F77D02F4B1B6C13F0805F33D10023B8
:1054900001932C4B1A6C42F080521A641B6C03F07F
:1054A00080530193019B0125284B1B6813F4807FD7
:1054B00023D0A368012B34D0052B38D0214B1A6F91
:1054C00022F001021A671A6F22F004021A67A36819
:1054D000002B3DD000F0F2FD06461A4B1B6F13F077
:1054E000020F46D100F0EAFD801B41F2883398425A
:1054F000F3D90320C6E00025D6E7144A136843F425
:105500008073136000F0DAFD0646104B1B6813F43D
:10551000807FCED100F0D2FD801B0228F5D9032078
:10552000B0E0084A136F43F001031367CFE7054B60
:105530001A6F42F004021A671A6F42F001021A67EA
:10554000C5E700BF0038024000004742007000403D
:1055500000F0B4FD0646524B1B6F13F0020F08D04B
:1055600000F0ACFD801B41F288339842F3D9032050
:1055700088E0EDB9A369002B00F08380484A926867
:1055800002F00C02082A51D0022B17D0454B002202
:105590001A6600F093FD0446414B1B6813F0007F30
:1055A00042D000F08BFD001B0228F5D9032069E0F2
:1055B0003B4A136C23F080531364DBE7394B002222
:1055C0001A6600F07BFD0546354B1B6813F0007F23
:1055D00006D000F073FD401B0228F5D9032051E0EE
:1055E000E369226A1343626A43EA8213A26A520899
:1055F000013A43EA0243E26A43EA0263284A5360FB
:10560000284B01221A6600F059FD0446244B1B6802
:1056100013F0007F06D100F051FD001B0228F5D9E0
:1056200003202FE000202DE000202BE0012B2BD0C9
:105630001B4B5B6803F48001E269914226D103F0C1
:105640003F02216A8A4223D1616A47F6C0721A403A
:10565000B2EB811F1ED103F44031A26A5208013A15
:10566000B1EB024F18D103F07063E26AB3EB026F43
:1056700014D1002006E001207047012002E0012043
:1056800000E0002002B070BD0120FBE70120F9E737
:105690000120F7E70120F5E70120F3E70120F1E71A
:1056A000003802400000474208B5264B9B6803F0D3
:1056B0000C03042B41D0082B41D1224B5A6802F035
:1056C0003F025B6813F4800F12D01E4B5968C1F380
:1056D00088111D480023A1FB0001FEF713F9194BA7
:1056E0005B68C3F3014301335B00B0FBF3F027E0D9
:1056F000144B5868C0F388104FEA401CBCEB000CF8
:105700006EEB0E0E4FEA8E1343EA9C634FEA8C1148
:10571000B1EB0C0163EB0E03DB0043EA5173C900EC
:1057200011EB000C43F10003990200234FEA8C2097
:1057300041EA9C51FEF7E6F8D1E7034800E0034850
:1057400008BD00BF00380240001BB7000024F40071
:10575000002800F09B8070B50D4604464F4B1B6837
:1057600003F00F038B4208D2CBB24C4A137013687C
:1057700003F00F038B4240F08B80236813F0020F7D
:1057800017D013F0040F04D0454A936843F4E05354
:105790009360236813F0080F04D0414A936843F4E0
:1057A000604393603E4A936823F0F003A1680B4383
:1057B0009360236813F0010F32D06368012B21D06E
:1057C0009A1E012A25D9364A126812F0020F61D0BA
:1057D00033498A6822F0030213438B6000F06EFCA9
:1057E00006462F4B9B6803F00C036268B3EB820FF5
:1057F00016D000F063FC801B41F288339842F0D948
:10580000032042E0264A126812F4003FE0D1012052
:105810003BE0234A126812F0007FD9D1012034E026
:105820001E4B1B6803F00F03AB4207D9EAB21B4BB8
:105830001A701B6803F00F03AB422DD1236813F0DD
:10584000040F06D0164A936823F4E053E1680B4333
:105850009360236813F0080F07D0114A936823F46C
:105860006043216943EAC1039360FFF71DFF0C4BBE
:105870009B68C3F303130B4AD35CD8400A4B1860F0
:105880000A4B1868FFF70CFA002070BD0120704722
:105890000120FAE70120F8E70120F6E7003C02408A
:1058A000003802405CF00008640000206000002026
:1058B000014B1868704700BF6400002008B5FFF76F
:1058C000F7FF044B9B68C3F38223034AD35CD840A1
:1058D00008BD00BF0038024054F0000808B5FFF7CB
:1058E000E7FF044B9B68C3F34233034AD35CD840C1
:1058F00008BD00BF0038024054F000080F230360C9
:105900000B4B9A6802F0030242609A6802F0F002C0
:1059100082609A6802F4E052C2609B68DB0803F47C
:10592000E0530361034B1B6803F00F030B607047E8
:1059300000380240003C024000230F2B00F2F680AA
:1059400070B582B066E085684FEA430E032404FA1E
:105950000EF425EA0405CC6804FA0EF42C438460A6
:10596000446824EA02044A68C2F300129A402243BF
:1059700042605DE0DC08083450F8242003F007059D
:10598000AD004FF00F0E0EFA05FE22EA0E0E0A6968
:10599000AA4042EA0E0240F824205DE0092200E01D
:1059A000002202FA0EF22A430234614D45F8242007
:1059B000604A94686FEA0C0224EA0C054E6816F4FB
:1059C000801F01D04CEA04055A4CA560E46802EA45
:1059D00004054E6816F4001F01D04CEA0405554C2E
:1059E000E560646802EA04054E6816F4003F01D0E1
:1059F0004CEA04054F4C6560246822404D6815F45C
:105A0000803F01D04CEA04024A4C226001330F2B44
:105A100000F28A8001229A400C6804EA020C32EA01
:105A20000404F3D14C6804F00304013C012C8AD92E
:105A30004A6802F00302032A09D0C4685D00032209
:105A4000AA4024EA02048A68AA402243C2604A6843
:105A500002F00302022A8DD004684FEA430E0322AB
:105A600002FA0EF224EA02044A6802F0030202FA81
:105A70000EF2224302604A6812F4403FC6D0002270
:105A800001922D4A546C44F480445464526C02F4E4
:105A900080420192019A9C08A51C254A52F8255083
:105AA00003F0030E4FEA8E0E0F2202FA0EF225EAE1
:105AB0000205224A90423FF473AF02F580629042A1
:105AC00022D002F58062904220D002F5806290429E
:105AD0001ED002F5806290421CD002F58062904296
